:020000040000FA
:100000000C94E0000C9408010C9408010C948D07EA
:100010000C948D070C948D070C9408010C94080126
:100020000C9408010C9408010C9408010C9408012C
:100030000C9408010C9408010C9408010C9408011C
:100040000C9443070C9408010C9411070C94EB06D4
:100050000C9408010C9408010C9408010C940801FC
:100060000C9408010C94080100407A10F35A00A087
:10007000724E18090010A5D4E80000E87648170071
:1000800000E40B54020000CA9A3B000000E1F505B1
:10009000000080969800000040420F000000A086FB
:1000A00001000000102700000000E803000000002D
:1000B0006400000000000A000000000001000000D1
:1000C00000002C76D888DC674F0823DFC1DFAE59EB
:1000D000E1B1B796E5E3E453C63AE651997696E87E
:1000E000E6C28426EB898C9B62ED407C6FFCEFBC02
:1000F0009C9F40F2BAA56FA5F490055A2AF75C932D
:100100006B6CF9676DC11BFCE0E40D47FEF520E662
:10011000B500D0ED902E0300943577050080841E45
:10012000080000204E0A000000C80C333333330FA0
:10013000986E12831141EF8D2114893BE65516CF3D
:10014000FEE6DB18D1844B381BF77C1D901DA4BB49
:10015000E424203284725E228100C9F124ECA1E5FE
:100160003D2700000000240027002A0000000008AE
:10017000000201000003040700000000000000006E
:1001800000000000230026002900000000002500D8
:1001900028002B00040404040404040402020202E4
:1001A000020203030303030301020408102040803A
:1001B0000102040810200102040810200508000EA6
:1001C00011241FBECFEFD8E0DEBFCDBF23E0A6EFE6
:1001D000B1E001C01D92AD3DB207E1F711E0A0E032
:1001E000B1E0E8EDF9E202C005900D92A63FB1073B
:1001F000D9F710E0CFEDD0E004C02197FE010E94B6
:10020000B312CE3DD107C9F70E94F8080C94DF1451
:100210000C9400000895AF92BF92CF92DF92EF92BC
:10022000FF920F931F93CF93DF936C017B018B01A0
:10023000040F151FEB015E01AE18BF08C017D107F0
:1002400059F06991D601ED91FC910190F081E02D7A
:10025000C6010995892B79F7C501DF91CF911F91CF
:100260000F91FF90EF90DF90CF90BF90AF900895E7
:10027000FC01538D448D252F30E0842F90E0821BAC
:10028000930B541710F0CF96089501970895FC0131
:10029000918D828D981761F0A28DAE0FBF2FB11D89
:1002A0005D968C91928D9F5F9F73928F90E00895E1
:1002B0008FEF9FEF0895FC01918D828D981731F09B
:1002C000828DE80FF11D858D90E008958FEF9FEFEF
:1002D0000895FC01918D228D892F90E0805C9F4FC5
:1002E000821B91098F739927089585E492E00E94FB
:1002F000690121E0892B09F420E0822F089580E034
:1003000090E0892B29F00E94750181110C94000066
:100310000895FC01A48DA80FB92FB11DA35ABF4F9A
:100320002C91848D90E001968F739927848FA689F4
:10033000B7892C93A089B1898C91837080648C9348
:10034000938D848D981306C00288F389E02D8081F7
:100350008F7D80830895EF92FF920F931F93CF9329
:10036000DF93EC0181E0888F9B8D8C8D98131AC0F0
:10037000E889F989808185FF15C09FB7F894EE89D7
:10038000FF896083E889F989808183708064808334
:100390009FBF81E090E0DF91CF911F910F91FF907F
:1003A000EF900895F62E0B8D10E00F5F1F4F0F7327
:1003B0001127E02E8C8D8E110CC00FB607FCFACFE2
:1003C000E889F989808185FFF5CFCE010E948901F6
:1003D000F1CFEB8DEC0FFD2FF11DE35AFF4FF082B3
:1003E0009FB7F8940B8FEA89FB8980818062CFCF19
:1003F000CF93DF93EC01888D8823B9F0AA89BB895C
:10040000E889F9898C9185FD03C0808186FD0DC046
:100410000FB607FCF7CF8C9185FFF2CF808185FF67
:10042000EDCFCE010E948901E9CFDF91CF910895F0
:10043000833081F028F4813099F08230A9F008955A
:100440008730A9F08830C9F08430B1F48091800001
:100450008F7D03C0809180008F7780938000089506
:1004600084B58F7784BD089584B58F7DFBCF80914F
:10047000B0008F778093B00008958091B0008F7D99
:10048000F9CFCF93DF93E6E7F1E08491E2EBF1E07F
:10049000D491EEE9F1E0C491CC23A1F081110E9446
:1004A0001802EC2FF0E0EE0FFF1FE058FE4FA59171
:1004B000B491EC91ED2381E090E009F480E0DF91CC
:1004C000CF91089580E090E0FACF1F93CF93DF9310
:1004D000282F30E0F901E459FE4F8491F901E855E5
:1004E000FE4FD491F901EC56FE4FC491CC23A9F0F4
:1004F000162F81110E941802EC2FF0E0EE0FFF1F63
:10050000E657FE4FA591B4918FB7F894EC91111175
:1005100008C0D095DE23DC938FBFDF91CF911F9170
:100520000895DE2BF8CFCF93DF9390E0FC01E855E0
:10053000FE4F24918C569E4FFC0184918823D1F06C
:1005400090E0880F991FFC01EE59FE4FA591B491E0
:10055000FC01E657FE4FC591D49161110EC09FB7C3
:10056000F8948C91E22FE0958E238C932881E223DE
:10057000E8839FBFDF91CF9108958FB7F894EC91F6
:10058000E22BEC938FBFF6CF0F931F93CF93DF93A4
:10059000EC01162F042F1B821A8288EE93E0A0E054
:1005A000B0E08C839D83AE83BF838AE091E0998322
:1005B00088831F8A1E8A198E188E1B8E1A8E1D8E96
:1005C0001C8E6E8D6E7F6D7F6E8F6695617081E083
:1005D0006827842F0E94650261E0802F0E949302A9
:1005E000802F90E0FC01E855FE4FE491E88BFC0180
:1005F000EC56FE4FE491F0E0EE0FFF1FE657FE4F82
:10060000859194919A8B898B60E0812F0E9493024F
:100610008E8D81FD04C061E0812F0E9465021C87E0
:10062000812F90E0FC01E855FE4FE491ED87FC013D
:10063000EC56FE4FE491F0E0EE0FFF1FE058FE4F46
:10064000859194919F878E87DF91CF911F910F9114
:1006500008953FB7F89480913B0290913C02A0919D
:100660003D02B0913E0226B5A89B05C02F3F19F070
:100670000196A11DB11D3FBFBA2FA92F982F882722
:10068000BC01CD01620F711D811D911D42E0660FFD
:10069000771F881F991F4A95D1F708958F929F92CF
:1006A000AF92BF92CF92DF92EF92FF924B015C012B
:1006B0000E9429036B017C010E9429036C197D09AA
:1006C0008E099F09683E734081059105A8F321E0DA
:1006D000821A9108A108B10888EEC80E83E0D81EDE
:1006E000E11CF11C81149104A104B10429F7FF90CD
:1006F000EF90DF90CF90BF90AF909F908F90089534
:100700002FB7F894609137027091380280913902C6
:1007100090913A022FBF0895CF93DF93EC018A8521
:100720009B85AC85BD858E839F83A887B9870E94F2
:1007300080036A837B838C839D8381E089838883A4
:10074000DF91CF910895CF93DF93EC018E819F814C
:10075000A885B9858A839B83AC83BD830E9480036F
:100760006A877B878C879D8781E089838883DF9177
:10077000CF91089520914302309144022817390700
:1007800071F49091410280914202981741F0E091FA
:100790004102F0E0EA50FE4F808190E008958FEF33
:1007A0009FEF08950895EF92FF920F931F93CF93B9
:1007B000DF93DC015C96ED90FC905D97E114F10411
:1007C00079F481E090E013969C938E93129790E0D9
:1007D00080E0DF91CF911F910F91FF90EF900895EE
:1007E0005196ED91FC91529750968C915097982F7D
:1007F00090950FB75E962C915E97122F127021FD87
:100800006095F8942081112319F1282B2083E701AA
:100810002197F1F728E0462F50E0308160FF1AC0A1
:10082000382B3083E7012197F1F7BA017595679569
:10083000215089F7112381F08081892380830FBFA4
:100840005C968D919C910197F1F781E090E0C1CF8A
:100850002923DCCF3923E5CF9081892BEFCF20915D
:100860004302309144022817390771F48091420203
:100870002091410290E0805C9F4F821B910960E4CF
:1008800070E00E947D12089590E080E0089520912C
:1008900043023091440228173907B9F4909141027C
:1008A00080914202981789F0E0914102F0E0EA500D
:1008B000FE4F80812091410230E02F5F3F4F2F7328
:1008C00033272093410290E008958FEF9FEF089522
:1008D000E0914302F0914402E817F90769F4A38913
:1008E000B4899C918589809589238C9310924402C8
:1008F0001092430281E0089580E00895CF93DF9342
:10090000EC011B8E1A8E198E188E1F8A1E8A8DE995
:1009100091E09D8F8C8F8C858631E0F52DEB30E05A
:100920003F8B2E8B2BE931E0398F288F2CE231E081
:100930003B8F2A8F90916800883008F44EC021E0E8
:100940008E3008F420E081E001C0880F2A95EAF794
:10095000892B809368009C852DE630E0983050F01C
:100960002BE630E09E3030F02CE630E0963110F08F
:1009700030E020E03C8B2B8B292F30E0983078F54D
:1009800081E001C0880F9A95EAF78D8B8C8D9D8D43
:100990000197F1F78A8D9B8D892BE1F080914302BD
:1009A00090914402C817D907A9F0009711F00E944E
:1009B00068048E8D8E7F8E8F1092420210924102BB
:1009C000D0934402C0934302EB89FC8980819D89C6
:1009D000892B8083DF91CF91089584E0B9CF9E3039
:1009E00040F42850310981E001C0880F2A95EAF7C8
:1009F000CCCF2E503109F7CF90E080E0089564EF1E
:100A000071E080E090E00E944E0385E492E00E9455
:100A10006901892B51F085E492E00E944701682F1B
:100A200082EE92E00E94D303F0CF82EE92E00E9429
:100A30002F04892B51F082EE92E00E944704682F28
:100A400085E492E00E94AB01F0CF0895FB01019094
:100A50000020E9F73197AF01461B570BDC01ED9100
:100A6000FC910280F381E02D09940F931F93CF93A3
:100A7000DF93EC010E9426058C016AE271E0CE0151
:100A80000E942605800F911FDF91CF911F910F913A
:100A900008952F923F924F925F926F927F928F9222
:100AA0009F92AF92BF92CF92DF92EF92FF920F93FD
:100AB0001F93CF93DF93D82FC92F8B010E943C0E39
:100AC00024E630E040E050E00E94911249019B0191
:100AD000AC0160E876E988E990E00E946D126B0154
:100AE0007C01F80191828082ED2FFC2F2191822FD1
:100AF000022E000C990BC0970A97C0F32E3239F5DD
:100B00001F0180E8882E86E9982E88E9A82EB12C4E
:100B10009AE0492E512C612C712CF101C1911F01D9
:100B20000C2E000CDD0BE097CA30D10580F4C50116
:100B3000B401A30192010E94911249015A01DE0100
:100B40000E94B912C60ED71EE81EF91EE6CFA5E018
:100B5000B0E0A70196010E943D116F5F7F4F8F4F5C
:100B60009F4F23E030E040E050E00E949112F801F6
:100B700022833383448355831682DF91CF911F9163
:100B80000F91FF90EF90DF90CF90BF90AF909F902C
:100B90008F907F906F905F904F903F902F9008952F
:100BA0001F93CF93DF93EC0118811D3209F4219636
:100BB000CE010E943C0E9B01AC01A4E6B0E00E9475
:100BC0003D11AB01BC01FE012991822F022E000CC8
:100BD000990BC0970A97B8F32E3231F58181082E10
:100BE000000C990BC0978A309105F0F4AAE0A89FF9
:100BF0009001A99F300D1124C901330FAA0BBB0B23
:100C0000480F591F6A1F7B1F8281082E000C990B09
:100C1000C0978A30910540F4092E000CAA0BBB0B3B
:100C2000480F591F6A1F7B1F1D3239F4709560955C
:100C3000509541955F4F6F4F7F4FCB01BA01DF91C8
:100C4000CF911F9108950F931F93CF93DF938C0142
:100C5000EB01FC01808191810097E1F0688179814D
:100C600061157105A9F0428153812C813D814217A4
:100C7000530770F00E94C9148C819D81F8019583FF
:100C800084831D821C82DF91CF911F910F91089563
:100C90000E94711388819981F801918380838A81F0
:100CA0009B81938382838C819D8195838483198228
:100CB00018821B821A82E5CFCF93DF93EC018881E3
:100CC0009981009711F00E947113198218821D8278
:100CD0001C821B821A82DF91CF910895FC018081D2
:100CE0009181009711F00C94711308950F931F9345
:100CF000CF93DF93EC0188819981009759F02A8185
:100D00003B812617370730F081E0DF91CF911F91AB
:100D10000F9108958B016F5F7F4F0E94FA13009728
:100D200059F0998388831B830A832C813D81232B6F
:100D300059F7FC011082E8CF80E0E7CFEF92FF92F5
:100D40000F931F93CF93DF936115710541F480E0FA
:100D5000DF91CF911F910F91FF90EF900895411572
:100D60005105B1F07B01EC010C811D81040F151FB1
:100D7000B8010E947606882351F3288139818C813D
:100D80009D81B701820F931F0E94C9141D830C839C
:100D900081E0DECFEF92FF920F931F93CF93DF930B
:100DA000EC017B018A01BA010E94760681110BC019
:100DB000CE010E945C06CE01DF91CF911F910F9171
:100DC000FF90EF9008951D830C83B701888199816E
:100DD0000E94C914F0CF1F920F920FB60F921124E8
:100DE0002F933F934F935F936F937F938F939F9333
:100DF000AF93BF93EF93FF9385E492E00E94890144
:100E0000FF91EF91BF91AF919F918F917F916F91E2
:100E10005F914F913F912F910F900FBE0F901F90B8
:100E200018951F920F920FB60F9211242F938F9344
:100E30009F93EF93FF93E0915502F09156028081CA
:100E4000E0915B02F0915C0282FD1BC09081809179
:100E50005E028F5F8F7320915F02821741F0E091F5
:100E60005E02F0E0EB5BFD4F958F80935E02FF9199
:100E7000EF919F918F912F910F900FBE0F901F9028
:100E800018958081F4CF1F920F920FB60F92112404
:100E90002F933F938F939F93AF93BF93809137028C
:100EA00090913802A0913902B0913A023091360205
:100EB00023E0230F2D3758F50196A11DB11D209376
:100EC00036028093370290933802A0933902B09390
:100ED0003A0280913B0290913C02A0913D02B09178
:100EE0003E020196A11DB11D80933B0290933C02EE
:100EF000A0933D02B0933E02BF91AF919F918F911D
:100F00003F912F910F900FBE0F901F90189526E8DC
:100F1000230F0296A11DB11DD2CF1F920F920FB6C3
:100F20000F9211242F933F934F935F936F937F936F
:100F30008F939F93AF93BF93EF93FF93E0914302FF
:100F4000F0914402309749F0A685B7858585968D46
:100F500091FF14C09C918923A1F4FF91EF91BF915F
:100F6000AF919F918F917F916F915F914F913F9141
:100F70002F910F900FBE0F901F9018959C91892371
:100F800061F7A389B4899C918589809589238C9385
:100F9000868997890197F1F7608D718DA685B78550
:100FA000558538E020E0CB010197F1F7822F90E0E2
:100FB00095958795282F4C91452309F0206831504D
:100FC00091F7868D81FD20958091420290E00196F7
:100FD0008F73992730914102381799F0A0914202FE
:100FE000B0E0AA50BE4F2C9380934202828D938D25
:100FF0000197F1F7A389B4898C919589892B8C93FA
:10100000ACCF868D8160868FF1CFE5E4F2E013826C
:10101000128288EE93E0A0E0B0E084839583A683FB
:10102000B7838CE191E09183808385EC90E0958794
:10103000848784EC90E09787868780EC90E0918BA2
:10104000808B81EC90E0938B828B82EC90E0958B8F
:10105000848B86EC90E0978B868B118E128E138E8C
:10106000148EE3EDF3E01182108213821282158256
:10107000148250E040E06CE271E0CF010E94CA06A9
:10108000EDECF3E011821082138212821582148239
:1010900050E040E06CE271E0CF010E94CA0646E0F9
:1010A00064E08EEA93E00E94C402E1E0F3E0108283
:1010B0001182138212821482158216821782108680
:1010C0001286118613861486158616861786118A4F
:1010D000108A128A138A148A158A168A108E178A21
:1010E000118E128E138E148E158E12A213A214A2BC
:1010F00015A216A217A210AA11AA12AA13AA14AA1C
:1011000015AA16AE17AE1092450310924603109220
:1011100047031092480310924D0310924E03109211
:1011200053031092540310925503109256031092D9
:101130005B0310925C0310926103109262031092A1
:101140006303109264031092690310926A03109271
:101150006F03109270031092710310927203109239
:1011600077031092780310927D0310927E03109201
:101170007F0310928003109285031092860382E011
:1011800080939603109297031092980310929903FC
:1011900010929B0310929A0310929D0310929C034D
:1011A00010929E0310929F031092A0031092A1032D
:1011B0001092A2031092A3031092A4031092A5030D
:1011C0001092A6031092A7031092A8031092A903ED
:1011D0001092AA031092AB031092AC031092AD03CD
:1011E0001092870342E063E082EE92E00C94C40226
:1011F000CF93DF93CDB7DEB7A7970FB6F894DEBFD6
:101200000FBECDBF789484B5826084BD84B5816003
:1012100084BD85B5826085BD85B5816085BD8091C1
:101220006E00816080936E00109281008091810039
:101230008260809381008091810081608093810031
:10124000809180008160809380008091B1008460F3
:101250008093B1008091B00081608093B000809154
:101260007A00846080937A0080917A008260809313
:101270007A0080917A00816080937A0080917A0070
:10128000806880937A001092C10061E088E00E943B
:101290009302E0915502F091560282E08083E09142
:1012A0005102F09152021082E0915302F0915402E7
:1012B0008FEC808310925D02E0915902F0915A0206
:1012C00086E08083E0915702F0915802808180612E
:1012D0008083E0915702F09158028081886080837A
:1012E000E0915702F0915802808180688083E091FC
:1012F0005702F091580280818F7D808382EE92E0C8
:101300000E947E046DE271E085E492E00E94350562
:1013100068EE73E080E090E00E944E038EEA93E076
:101320000E947E046DE371E085E492E00E94350541
:1013300068EE73E080E090E00E944E03CC24C394FA
:1013400080E0E82E80E0F82E92E0B92EDD24D394E0
:101350008EEA93E00E942F04181619060CF0C0C202
:101360008EEA93E00E944704182F80919E0390918B
:101370009F03A091A003B091A1030196A11DB11DEF
:1013800080939E0390939F03A093A003B093A10327
:10139000143209F484C2E091980315320CF0BDC0F8
:1013A0001A3019F01D3009F087C2EF3008F032C151
:1013B000F0E0E957FC4F108280918603882309F4FE
:1013C00037C120918703822F022E000C990B3FEB2F
:1013D000320F363008F0ADC0C7978295807F90916C
:1013E0008803292F092E000C330B4FEB490F463091
:1013F00008F0A7C027533109820F90918503891304
:10140000F6C08091AA039091AB03A091AC03B09178
:10141000AD030196A11DB11D8093AA039093AB0368
:10142000A093AC03B093AD0380919903882399F006
:101430008091A2039091A303A091A403B091A5036E
:101440000196A11DB11D8093A2039093A303A093C5
:10145000A403B093A50300919603002309F47AC076
:101460000130A1F583E293E00E94A30381E393E0BE
:101470000E94A30380919903882341F187E0E1E171
:10148000F3E0A3E0B3E001900D928A95E1F787E0E5
:10149000E8E1F3E0AAE0B3E001900D928A95E1F76C
:1014A0000E94800360931F037093200380932103A5
:1014B0009093220300930203009301038FE393E0D0
:1014C0000E948C038DE493E00E948C0380909C0327
:1014D00090909D038114910409F49CC0E0919C03B9
:1014E000F0919D0366A177A1F40186A197A10E94C6
:1014F000C014892B09F08EC0B401C40140960E942B
:10150000C9140E948003F40160A371A382A393A372
:10151000C5A2C4A282A493A4DDCF1A3209F445CF98
:101520001C3209F0C9C1809185038127809385030E
:101530003CCF2156263018F4875591094ECFC097DD
:101540004CCF9156963018F42755310955CF20537A
:10155000310952CF81E393E00E94A3038091990364
:10156000882321F187E0E1E1F3E0A3E0B3E001901B
:101570000D928A95E1F787E0E8E1F3E0AAE0B3E0B5
:1015800001900D928A95E1F70E94800360931F03FA
:10159000709320038093210390932203D09202033F
:1015A000D09201038BE593E00E948C03809173033A
:1015B00090917403A0917503B091760380936F03AB
:1015C00090937003A0937103B09372030E94800301
:1015D00060936B0370936C0380936D0390936E0321
:1015E000D0926A03D092690387E793E06DCF809130
:1015F000A6039091A703A091A803B091A903019617
:10160000A11DB11D8093A6039093A703A093A803E7
:10161000B093A903809197038F5F809397031092F3
:10162000980381E01A3209F080E08093860390CE1F
:1016300090919703911144C06DE471E087E893E0C5
:101640000E94C014892B41F063E571E087E893E0C4
:101650000E94C014892BF1F4D092960380919A03D2
:1016600090919B0390939D0380939C0380909C0397
:1016700090909D038114910469F267E873E0F4018E
:1016800086A197A10E94C01497FFB2C2F40182A55F
:1016900093A5E8CF69E571E087E893E00E94C01464
:1016A000892B41F06FE571E087E893E00E94C01458
:1016B000892B19F410929603D1CFB0929603CECF16
:1016C000E0919603E23009F448C0809187038823B3
:1016D00009F443C020E2E29FF0011124E92B319785
:1016E000E932F10508F039C0E858F44F0C94B31210
:1016F000A10BE20BE90BF00BF30B210C280C350CC2
:10170000420CAD0BAD0BAD0BAD0BAD0BAD0BAD0B83
:10171000AD0BAD0BAD0BAD0BAD0BAD0BAD0BAD0B09
:10172000AD0BAD0BAD0BAD0BAD0BAD0BAD0BAD0BF9
:10173000A10BDC0BE20BE90BF00BF30BFA0B070C24
:10174000140C87E893E00E94D005609337037093F0
:1017500038038093390390933A0380909C039090D0
:101760009D03009197038114910409F453CFE091F4
:101770009C03F0919D0366A177A1F40186A197A136
:101780000E94C014892B09F045CFF40120A531A592
:10179000802F90E0821793070CF43CCF281739076D
:1017A00039F440E150E067E873E0C4010E94D014CE
:1017B000F40182A493A4D5CF91E0813409F445C00B
:1017C00090E043C061E173E087E893E00E9449053F
:1017D000C4CF91E0833509F090E090931703BDCF1B
:1017E00068E173E0F1CF91E0873509F090E09093E4
:1017F0001E03B3CF87E893E00E94D00560934903AE
:1018000070934A0380934B0390934C03A6CF87E8D1
:1018100093E00E94D0056093570370935803809320
:10182000590390935A0399CF87E893E00E943C0EA6
:101830006093290370932A0380932B0390932C03C6
:101840008CCF91E081330CF4BBCF9093990385CF7B
:1018500087E893E00E943C0E6093730370937403D7
:10186000809375039093760378CF87E893E00E9486
:10187000D0056093810370938203809383039093D8
:1018800084036BCF87E893E00E94D00560936503E3
:101890007093660380936703909368035ECF109202
:1018A00098031092970310928503B09296031092BA
:1018B0008603109299034CCDEE3040F481E08E0FF8
:1018C00080939803F0E0E957FC4F108380918603E2
:1018D00081113ECD8091850318271093850338CD63
:1018E00080910203882309F433CD109202036091A2
:1018F00005037091060380910703909108030E94ED
:10190000AF1028E23BE64EE65EE40E94FB112B019D
:101910003C01609103037091040390E080E00E9419
:10192000AF109B01AC01C301B2010E948F11209145
:101930000903211190581BA21AA21DA21CA21FA2CA
:101940001EA28E010F5F1F4F26E048E00E941E0E70
:10195000009709F443C1FC0101900020E9F7319799
:10196000AF01481B590BBC01CE0182960E94CA06EA
:10197000BE016E5D7F4F83ED93E00E942306CE0192
:1019800082960E946E061092020360910C03709181
:101990000D0380910E0390910F030E94AF1028E277
:1019A0003BE64EE65EE40E94FB112B013C01609198
:1019B0000A0370910B0390E080E00E94AF109B013E
:1019C000AC01C301B2010E948F11209110032111BB
:1019D00090581BA21AA21DA21CA21FA21EA28E0119
:1019E0000F5F1F4F26E048E00E941E0E009709F48B
:1019F000FAC0FC0101900020E9F73197AF01481BC4
:101A0000590BBC01CE0182960E94CA06BE016E5DD2
:101A10007F4F8DEC93E00E942306CE0182960E94B8
:101A20006E0665E671E085E492E00E94260540912D
:101A3000D7035091D8036091D3037091D40385E408
:101A400092E00E940B0162E771E085E492E00E945F
:101A500026054091D1035091D2036091CD0370913E
:101A6000CE0385E492E00E940B016AE271E085E416
:101A700092E00E94260568E873E180E090E00E9411
:101A80004E030E944102019709F090C080913F02ED
:101A900090914002892B09F089C061E088E00E94A2
:101AA00065026FE771E085E492E00E9435056CE81D
:101AB00071E082EE92E00E9435050E94FF046FE81B
:101AC00071E082EE92E00E9435050E94FF0469E910
:101AD00071E082EE92E00E9435050E94FF0462EB05
:101AE00071E082EE92E00E9426050E94FF041A82B5
:101AF00019821C821B821E821D824FE150E066EC1F
:101B000071E0CE0101960E94CA064091D703509120
:101B1000D8036091D3037091D403CE0101960E9443
:101B20009E06811104C0CE0101960E945C0641E030
:101B300050E066EE71E0CE0101960E949E06811192
:101B400004C0CE0101960E945C064091D1035091E1
:101B5000D2036091CD037091CE03CE0101960E9415
:101B60009E06811104C0CE0101960E945C064D8143
:101B70005E8169817A8182EE92E00E940B01CE0142
:101B800001960E946E060E94FF046AE182EE92E0D6
:101B90000E94D30368EE71E085E492E00E9435056F
:101BA00081E090E09093400280933F020E944102C6
:101BB000892B41F41092400210923F0260E088E0CD
:101BC0000E946502E114F10409F4C2CB0E94750180
:101BD000882309F4BDCB0E940000BACBCE018296C7
:101BE0000E945C06C5CECE0182960E945C060ECF96
:101BF000892B09F40FCD10929D0310929C030ACDFE
:101C0000CF93DF93CAE0D1E0D093E302C093E20226
:101C100082EE92E00E946804D093AF03C093AE03BB
:101C20008EEA93E00E9468048DEC93E00E946E06B9
:101C300083ED93E0DF91CF910C946E06EF920F93BA
:101C40001F93CF93DF93E80134E047FD34E1042E86
:101C5000000C550B57FF03C0519541955109E32ED8
:101C6000022F242FAE010E94780ECE01DF91CF917A
:101C70001F910F91EF9008951F93FC0199278827DA
:101C8000BC01E89411911032E9F3193010F01E30C4
:101C9000C8F31B3251F01D3249F4689406C00E940B
:101CA000630E610F711D811D911D119110531A302A
:101CB000B0F33EF490958095709561957F4F8F4F6E
:101CC0009F4F1F910895592F482F372F262F660FAA
:101CD000771F881F991F660F771F881F991F620F34
:101CE000731F841F951F660F771F881F991F089504
:101CF000A9E0B0E0EEE7FEE00C944E116A01F22E8E
:101D0000B02E102FFBE3AF2EA01608F41BE31F5FCD
:101D1000012F27E0AE014F5F5F4F0E94D70FBC013C
:101D20008981982F9970913009F43FC09BE2E1FCC2
:101D300004C09E2D9170E0FC3AC05E2D5071E82FDA
:101D4000E87083FF46C084E0911101C083E0EF2D6D
:101D5000E81B8F1508F0E0E0D6018E2F20E2552316
:101D600051F1992329F0D6019C93C60101966C018B
:101D700096012D5F3F4FE2FE24C08EE4D6018C9386
:101D800091E411969C93119712968C93D9018E2F02
:101D900090E281111BC0E20FF32FF11D10828EEF34
:101DA0009FEF2996ECE00C946A119DE2C6CF90E279
:101DB000C4CF2D9381508111FCCFCE0ED11CE0E019
:101DC000D0CF8EE6D6018C9391E6DBCF9D938150E8
:101DD000E0CF482F447082FF3DC084E0911101C0E4
:101DE00083E08F1510F4EF2DE81BD6018E2F20E233
:101DF000552309F1992329F0D6019C93C601019638
:101E00006C0196012D5F3F4FE2FE1BC089E4D601B5
:101E10008C938EE411968C93119786E412968C9392
:101E2000D9018E2F90E2882309F4B5CF9D9381507C
:101E3000FACF2D9381508111FCCFCE0ED11CE0E062
:101E4000D9CF89E6D6018C938EE611968C931197A3
:101E500086E6E4CF9B0177FF02C030E020E0A1E0FE
:101E6000B0E0911102C0B0E0A0E0F9013196AE0FF0
:101E7000BF1F8B2C912CBB2009F461C05401EFEFE4
:101E8000AE1ABE0AAA0DBB1DFA161B0619F014F0F5
:101E90004F2D4A1B511188C0E3FC59C07601A42F75
:101EA000B0E2A1114FC0C40ED11C992309F45BC04C
:101EB00040E0D6011196F60190836D01552309F497
:101EC00048C0012F060F9A81582F507184FF03C01C
:101ED000913309F4015010160CF047C0093008F096
:101EE00008E0EEE2FE2E5B01A01AB1088501919494
:101EF000819491082F3F320729F4D601FC92F60114
:101F000031966F016217730794F1021713077CF57E
:101F1000DB01A21BB30BAA24A394B12CAC0EBD1EF3
:101F2000AA0DBB1D11968C9121503109D601119635
:101F300028153905F4F0F60180836D01DBCFB12C53
:101F4000A12CA0CFF701B1937F01A150AACF91118D
:101F5000B0CFD601942F50E302C05D939150911100
:101F6000FCCFC40ED11C40E0ACCF01E0BACF80E37F
:101F7000DBCF6217730731F4963388F4953311F48D
:101F8000552369F0F6018083FD01842F90E28111D1
:101F900008C0A40FB11D1C9290E080E002CF81E345
:101FA000F1CF91938150F3CF911183CF8ACF283015
:101FB00008F027E03327DA01990F311D87FD916082
:101FC00000966105710539F432602E5F3D9330E370
:101FD0002A95E1F708959F3F30F08038710561053B
:101FE00009F03C5F3C5F3D93913008F08068911DA3
:101FF000DF93CF931F930F93FF92EF92192F987F48
:102000009695E92F96959695E90FFF27EE53FF4F8A
:1020100099273327EE24FF24A701E70105900894B0
:10202000079428F4360FE71EF81E491F511D660F4E
:10203000771F881F991F0694A1F70590079428F42D
:10204000E70EF81E491F561FC11D770F881F991FE5
:10205000661F0694A1F70590079428F4F80E491F0F
:10206000561FC71FD11D880F991F661F771F069423
:10207000A1F70590079420F4490F561FC71FD81FDA
:10208000990F661F771F881F0694A9F784911095F2
:10209000177041F0D695C79557954795F794E794F3
:1020A0001A95C1F7E8E6F0E068941590159135911E
:1020B0006591959105907FE27395E118F10A430BC4
:1020C000560BC90BD009C0F7E10CF11E431F561F78
:1020D000C91FD01D7EF4703311F48A95E6CFE894C1
:1020E000015030F0080F0AF40027021708F4202FDF
:1020F0002395022F7A3328F079E37D932A95E9F727
:1021000010C07D932A9589F6069497956795379523
:1021100017951794E118F10A430B560BC90BD00918
:1021200098F023957E9173957A3308F070E37C9351
:102130002013B8F77E9170617D9330F0839571E341
:102140007D9370E32A95E1F71124EF90FF900F91B2
:102150001F91CF91DF91992787FD90950895E8947D
:1021600009C097FB3EF490958095709561957F4FDF
:102170008F4F9F4F9923A9F0F92F96E9BB2793958D
:10218000F695879577956795B795F111F8CFFAF49D
:10219000BB0F11F460FF1BC06F5F7F4F8F4F9F4FCE
:1021A00016C0882311F096E911C0772321F09EE82C
:1021B000872F762F05C0662371F096E8862F70E092
:1021C00060E02AF09A95660F771F881FDAF7880F6C
:1021D0009695879597F9089597F99F6780E870E03D
:1021E00060E008959FEF80EC089500240A9416168D
:1021F000170618060906089500240A9412161306F5
:10220000140605060895092E0394000C11F4882382
:1022100052F0BB0F40F4BF2B11F460FF04C06F5F9E
:102220007F4F8F4F9F4F089557FD9058440F551F74
:1022300059F05F3F71F04795880F97FB991F61F048
:102240009F3F79F087950895121613061406551FBF
:10225000F2CF4695F1DF08C0161617061806991F2B
:10226000F1CF86957105610508940895E894BB2720
:1022700066277727CB0197F908950E947F11A59FC4
:10228000900DB49F900DA49F800D911D1124089571
:102290002F923F924F925F926F927F928F929F9276
:1022A000AF92BF92CF92DF92EF92FF920F931F9364
:1022B000CF93DF93CDB7DEB7CA1BDB0B0FB6F89415
:1022C000DEBF0FBECDBF09942A88398848885F8455
:1022D0006E847D848C849B84AA84B984C884DF80C6
:1022E000EE80FD800C811B81AA81B981CE0FD11DAA
:1022F0000FB6F894DEBF0FBECDBFED010895A29FCB
:10230000B001B39FC001A39F700D811D1124911DC9
:10231000B29F700D811D1124911D08955058BB2747
:10232000AA270E94A6110C9403110E94F51038F000
:102330000E94FC1020F039F49F3F19F426F40C940D
:10234000F2100EF4E095E7FB0C94EC10E92F0E94DC
:10235000141158F3BA17620773078407950720F022
:1023600079F4A6F50C9436110EF4E0950B2EBA2FE5
:10237000A02D0B01B90190010C01CA01A00111248B
:10238000FF27591B99F0593F50F4503E68F11A1637
:10239000F040A22F232F342F4427585FF3CF4695C8
:1023A00037952795A795F0405395C9F77EF41F16EA
:1023B000BA0B620B730B840BBAF09150A1F0FF0FB4
:1023C000BB1F661F771F881FC2F70EC0BA0F621FA0
:1023D000731F841F48F4879577956795B795F79590
:1023E0009E3F08F0B0CF9395880F08F09927EE0F25
:1023F0009795879508950E940F120C9403110E94DF
:10240000FC1058F00E94F51040F029F45F3F29F0CD
:102410000C94EC1051110C9437110C94F2100E9492
:10242000141168F39923B1F3552391F3951B550BC0
:10243000BB27AA2762177307840738F09F5F5F4F97
:10244000220F331F441FAA1FA9F335D00E2E3AF0D6
:10245000E0E832D091505040E695001CCAF72BD0EE
:10246000FE2F29D0660F771F881FBB1F261737073F
:102470004807AB07B0E809F0BB0B802DBF01FF2771
:1024800093585F4F3AF09E3F510578F00C94EC1052
:102490000C9437115F3FE4F3983ED4F3869577951B
:1024A0006795B795F7959F5FC9F7880F911D96952A
:1024B000879597F90895E1E0660F771F881FBB1F86
:1024C000621773078407BA0720F0621B730B840B33
:1024D000BA0BEE1F88F7E0950895DB018F939F9369
:1024E0000E943D11BF91AF91A29F800D911DA39FAE
:1024F000900DB29F900D1124089597FB072E16F4AE
:10250000009407D077FD09D00E94C11207FC05D0C6
:102510003EF4909581959F4F0895709561957F4FFA
:102520000895A1E21A2EAA1BBB1BFD010DC0AA1F14
:10253000BB1FEE1FFF1FA217B307E407F50720F02C
:10254000A21BB30BE40BF50B661F771F881F991FA7
:102550001A9469F760957095809590959B01AC01F0
:10256000BD01CF010895EE0FFF1F0590F491E02DFE
:102570000994B7FF0C943D110E943D11821B930BEF
:102580000895AA1BBB1B51E107C0AA1FBB1FA617BA
:10259000B70710F0A61BB70B881F991F5A95A9F70C
:1025A00080959095BC01CD0108950F931F93CF9313
:1025B000DF938230910510F482E090E0E091DB033C
:1025C000F091DC0330E020E0B0E0A0E0309799F437
:1025D0002115310509F44AC0281B390B2430310577
:1025E000D8F58A819B816115710589F1FB0193837F
:1025F0008283FE0111C040815181028113814817FD
:102600005907E0F04817590799F4109761F01296AE
:102610000C93129713961C933296CF01DF91CF91B2
:102620001F910F9108950093DB031093DC03F4CF07
:102630002115310551F04217530738F0A901DB018C
:102640009A01BD01DF01F801C1CFEF01F9CF9093ED
:10265000DC038093DB03CDCFFE01E20FF31F8193F8
:1026600091932250310939832883D7CF2091D90300
:102670003091DA03232B41F42091020130910301C0
:102680003093DA032093D9032091000130910101A6
:102690002115310541F42DB73EB740910401509109
:1026A0000501241B350BE091D903F091DA03E21701
:1026B000F307A0F42E1B3F0B2817390778F0AC0165
:1026C0004E5F5F4F2417350748F04E0F5F1F509342
:1026D000DA034093D903819391939FCFF0E0E0E038
:1026E0009CCFCF93DF930097E9F0FC0132971382E0
:1026F0001282A091DB03B091DC03ED0130E020E019
:102700001097A1F420813181820F931F2091D9036A
:102710003091DA032817390709F061C0F093DA0322
:10272000E093D903DF91CF910895EA01CE17DF0737
:10273000E8F54A815B819E0141155105B1F7E90138
:10274000FB83EA8349915991C40FD51FEC17FD070C
:1027500061F4808191810296840F951FE90199832C
:102760008883828193819B838A83F0E0E0E01296E4
:102770008D919C9113970097B9F52D913C911197EC
:10278000CD010296820F931F2091D9033091DA0375
:102790002817390739F6309751F51092DC0310925B
:1027A000DB03B093DA03A093D903BCCFD383C283F6
:1027B00040815181840F951FC817D90761F44E5F7E
:1027C0005F4F88819981480F591F518340838A81C7
:1027D0009B81938382832115310509F0B0CFF0935B
:1027E000DC03E093DB039ECFFD01DC01C0CF13824D
:1027F0001282D7CFB0E0A0E0E0E0F4E10C944A11FF
:102800008C01009751F4CB010E94D5128C01C801B4
:10281000CDB7DEB7E0E10C946611FC01E60FF71FBF
:102820009C0122503109E217F30708F49DC0D90139
:10283000CD91DC911197C617D70798F0C530D10517
:1028400030F3CE0104978617970708F3C61BD70B02
:102850002297C193D1936D937C93CF010E94711302
:10286000D6CF5B01AC1ABD0A4C018C0E9D1EA09107
:10287000DB03B091DC03512C412CF12CE12C10979F
:1028800031F58091D9039091DA038815990509F003
:102890005CC04616570608F058C080910001909120
:1028A0000101009741F48DB79EB74091040150910A
:1028B0000501841B950BE817F90708F055C0F09344
:1028C000DA03E093D903F90171836083A0CF8D917E
:1028D0009C91119712966C90129713967C90139777
:1028E000A815B90559F56C0142E0C40ED11CCA14F3
:1028F000DB0420F1AC014A195B09DA011296159745
:1029000080F06282738251834083D9016D937C93FE
:10291000E114F10471F0D7011396FC93EE93129732
:1029200076CF22968C0F9D1FF90191838083F3014E
:10293000EFCFF093DC03E093DB0369CF4816590631
:1029400008F42C017D01D3019ACFCB010E94D5124E
:102950007C01009749F0AE01B8010E94B714C8018C
:102960000E947113870153CF10E000E050CFFB01AC
:10297000DC0102C001900D9241505040D8F70895FB
:10298000FB01DC018D91019080190110D9F3990BA5
:102990000895FB01DC0101900D920020E1F70895FC
:1029A000FB01DC014150504048F001900D920020A5
:1029B000C9F701C01D9241505040E0F7089510E062
:1029C000CFEDD0E004C0FE010E94B3122196C03EBC
:1029D000D107C9F7F894FFCF0000DD0380000000A5
:1029E0000000D3030B01FC04D2032F044704BA03F5
:1029F00000000000AB010B013801F801690147013B
:102A00005B010D0A00496E697469616C697A696ECF
:102A1000672E2E2E00475053207374617274696EB6
:102A200067207570004750524D4300474E524D434A
:102A300000475047474100474E47474100204C61FF
:102A4000747469747564653D2000204C6F6E67690D
:102A5000747564653D200047415320444554454307
:102A60005445440041540041542B434D47463D31A9
:102A70000041542B434D47533D222B3233343830E1
:102A800036393030323833322200476173204C659A
:102A9000616B61676520416C6572740A0D00687432
:102AA0007470733A2F2F7777772E676F6F676C6527
:102AB0002E636F6D2F6D6170732F3F713D002C0081
:0E2AC0004D4553534147452053454E540000A9
:107E0000112484B714BE81FFF0D085E080938100F7
:107E100082E08093C00088E18093C10086E0809377
:107E2000C20080E18093C4008EE0C9D0259A86E02C
:107E300020E33CEF91E0309385002093840096BBD3
:107E4000B09BFECF1D9AA8958150A9F7CC24DD24C4
:107E500088248394B5E0AB2EA1E19A2EF3E0BF2EE7
:107E6000A2D0813461F49FD0082FAFD0023811F036
:107E7000013811F484E001C083E08DD089C08234E0
:107E800011F484E103C0853419F485E0A6D080C0E4
:107E9000853579F488D0E82EFF2485D0082F10E0AE
:107EA000102F00270E291F29000F111F8ED06801E7
:107EB0006FC0863521F484E090D080E0DECF843638
:107EC00009F040C070D06FD0082F6DD080E0C81688
:107ED00080E7D80618F4F601B7BEE895C0E0D1E017
:107EE00062D089930C17E1F7F0E0CF16F0E7DF06D8
:107EF00018F0F601B7BEE89568D007B600FCFDCFD4
:107F0000A601A0E0B1E02C9130E011968C91119780
:107F100090E0982F8827822B932B1296FA010C0160
:107F200087BEE89511244E5F5F4FF1E0A038BF0790
:107F300051F7F601A7BEE89507B600FCFDCF97BE46
:107F4000E89526C08437B1F42ED02DD0F82E2BD052
:107F50003CD0F601EF2C8F010F5F1F4F84911BD097
:107F6000EA94F801C1F70894C11CD11CFA94CF0C13
:107F7000D11C0EC0853739F428D08EE10CD085E9AC
:107F80000AD08FE07ACF813511F488E018D01DD067
:107F900080E101D065CF982F8091C00085FFFCCF94
:107FA0009093C60008958091C00087FFFCCF809118
:107FB000C00084FD01C0A8958091C6000895E0E648
:107FC000F0E098E1908380830895EDDF803219F02E
:107FD00088E0F5DFFFCF84E1DECF1F93182FE3DFCA
:107FE0001150E9F7F2DF1F91089580E0E8DFEE27F6
:047FF000FF270994CA
:027FFE00040479
:00000001FF
